:020000040800F2
:10000000880B0020ED0100081F27000817270008B3
:100010001B2700080D140008B92900080000000083
:100020000000000000000000000000004D27000854
:100030000916000800000000212700084F270008CB
:10004000070200080702000807020008070200086C
:10005000070200080702000807020008070200085C
:10006000070200080702000807020008070200084C
:10007000070200080702000807020008070200083C
:10008000070200080702000807020008070200082C
:10009000070200080702000807020008070200081C
:1000A000070200080702000807020008070200080C
:1000B00007020008070200080702000807020008FC
:1000C00007020008070200080702000807020008EC
:1000D00007020008A9290008070200080702000813
:1000E00007020008070200080702000807020008CC
:1000F00007020008070200080702000807020008BC
:1001000007020008070200080702000807020008AB
:10011000070200080702000807020008070200089B
:10012000070200080702000807020008070200088B
:1001300000F002F800F04AF80AA090E8000C8244AF
:100140008344AAF10107DA4501D100F03FF8AFF28C
:10015000090EBAE80F0013F0010F18BFFB1A43F0A5
:1001600001031847744D0000944D0000103A24BF5D
:1001700078C878C1FAD8520724BF30C830C144BF0C
:1001800004680C607047000000230024002500264E
:10019000103A28BF78C1FBD8520728BF30C148BFEA
:1001A0000B607047662903F03E82642900F0668088
:1001B000002070471FB500F0EFFB04000020002175
:1001C00003F0C4F8E0601FBD10B510BD00F0E8FCFE
:1001D0001146FFF7EFFF02F00BFD00F006FD03B440
:1001E000FFF7F2FF03BC02F020FC00000948804743
:1001F00009480047FEE7FEE7FEE7FEE7FEE7FEE709
:10020000FEE7FEE7FEE7FEE704480549054A064B20
:1002100070470000572700083101000888050020BA
:10022000880B002088070020880700207047000006
:100230000FB4044910B503AA029800F09BFB10BC50
:100240005DF814FB080000200FB41CB50C0007AAD1
:10025000009001D02044401E074B7B44694601902A
:10026000069800F066FB002C03D06946002000F0E1
:1002700073FB1CBC5DF814FB050700002DE9F04181
:100280000646002410687529314616A510D0AFF334
:100290000080002802DA404213A507E031688A078F
:1002A00001D512A502E0490704D511A5012401E0FA
:1002B000AFF3008000210A2206F1240709E0B0FB19
:1002C000F2FCB0FBF2F302FB1C003030785418460D
:1002D000491C0028F3D123462A463046BDE8F041A8
:1002E00000F0BAB8000000002D0000002B00000054
:1002F000200000002DE9F0474FF0000A894604462F
:10030000C0F820A02046E1688847002876D025283C
:1003100006D0D4E901219047206A401C2062F1E711
:10032000E168204600258847C4F81CA0064600273F
:10033000C4F818A02A2E09D0304602F06FFB38B35B
:1003400004EB8708303EC8F8186019E059F8041B20
:10035000204604EB87029161E1688847012F064639
:1003600018D1E069002820DA25F020051DE0D8F832
:10037000180000EB800006EB40003038C8F8180089
:100380002046E1688847064602F048FB0028EED187
:10039000012F0AD02E2E08D12046E16888477F1C05
:1003A0000646022F45F02005C4DBA069002803DAC9
:1003B000404245F00105A061E80701D025F0100595
:1003C000B6B1A6F14100192802D8203645F40065DF
:1003D0004A463146204625604D46FFF7E3FE58B1B8
:1003E000012806D0ED1D25F0070000F1080989E776
:1003F00004E005F1040985E730468AE7206ABDE894
:10040000F0874FF0000200B5134694469646203917
:1004100022BFA0E80C50A0E80C50B1F12001BFF4BD
:10042000F7AF090728BFA0E80C5048BF0CC05DF823
:1004300004EB890028BF40F8042B08BF704748BF71
:1004400020F8022B11F0804F18BF00F8012B7047E5
:1004500070477047704770472DE9F0470D46994641
:100460009246044600F124080168880604D5E06934
:1004700021F01001216000E00120A84201DD471BAE
:1004800000E00027A1697A1902EB0900081AA061AF
:100490002078C00602D42046AFF30080002608E092
:1004A000D4E901211AF806009047206A401C761C06
:1004B00020624E45F4DB2078C0060AD52046AFF313
:1004C000008006E0D4E9012130209047206A401CDA
:1004D0002062381EA7F10107F4DC07E0D4E901210E
:1004E00018F805009047206A401C2062281EA5F1DC
:1004F0000105F3DC2046AFF300802078000602D52A
:100500000220BDE8F0870120FBE770472DE9FF4F8F
:100510000C461E464FF0FF378BB0D2E90001DDF8E4
:1005200060800A908A46C1F30A5505B93D4600210C
:1005300008464FF00000BAF1000F00F4400005DA61
:1005400000EB80004FF4400101EA50004FEA90595F
:10055000B9F1010F00DDB9460A9850EA4A000ED001
:1005600044F61050A5F2FF3545432F14B8F1000FA3
:100570001ED07542291E1EDDC9F100021CE0B8F133
:10058000010F4FF0000001D0302103E0F24305E0FD
:100590002154401CB042FBDB304600220021215494
:1005A0000B99C1F80880C1E900200FB0BDE8F08FB9
:1005B000BD1B6D1CDEE74A4600DA694206A800F062
:1005C00075FA06AB93E8070003AB83E807005046D3
:1005D0000A9900F053FB8DE80700A0F500501F3882
:1005E00000900398002D0ADD42F21F014A4608449C
:1005F000002303A90390684600F0BCFD09E0A0F5C4
:1006000000504A461F38002303A90390684600F0B3
:10061000C6FD8DE807000004000C03D04FF0FF304A
:10062000410800E01046B8F1000F03D0002200920C
:1006300015461EE0751E05D400F0B2F93032625541
:100640006D1EF9D5B3460122084302D000227F1C5B
:1006500004E02078302801D100227F1E002A09976B
:1006600084D01DE0112D07DA00F09AF9303262557E
:100670006D1C50EA0102F5D1084302D00098C8B1C0
:100680000EE00021681E05E0235C625C6354225486
:10069000401E491C8142F7DBAB46A81B401E099057
:1006A000002004F80B000B98099AC0F80880C0E9F4
:1006B000002B7AE711264FF0000857E72DE9F04F9D
:1006C00088460446D21D22F0070191B0D1E900010D
:1006D000CDE90A0102F072F902460B98C00F01D071
:1006E0002D2007E02068810701D52B2002E0202182
:1006F00001EAC000032A099001D0072A05DB03465E
:100700004146204600F092F90BE12078800601D5A1
:10071000E06900E00620B8F1650F814606D0B8F127
:10072000660F18D0B8F1670F70D131E00020B9F131
:10073000110F009001DB112301E009F101030AAA66
:1007400001A90CA8FFF7E2FEDDE90C70002609F113
:100750000105834647E001204B4600904FF00047DB
:100760000AAA01A90CA8FFF7D1FEDDE90DB00C998A
:100770005D46002610B909F101000D18B9EB05001E
:1007800003D4C0F1FF3609F10105A5EB09002BE008
:10079000B9F1010F01DA4FF001090020B9F1110F91
:1007A0000090484601DD112300E003460AAA01A992
:1007B0000CA8FFF7ABFEDDE90C704D460026834622
:1007C000207800070AD4AB4500DA5D4601A8012D68
:1007D00004DD411911F8011C302907D04F4502DA18
:1007E00017F1040F04DA012082460FE06D1EEEE7D8
:1007F000002F02DCED1B3E4403E0781CA84200DD24
:100800007D1CB81B00F1010A4FF00047207800075B
:1008100003D4AA4501DB4FF0FF3A0021B7F1004FA6
:100820000DF143088DF8431024D002202B23002F14
:1008300001DA7F422D230A21021EA0F1010000DC13
:100840005FB197FBF1FC97FBF1F201FB1C7C1746B3
:100850000CF1300C08F801CDEEE7A8F101000370AF
:100860002188090501D5452100E06521A0F1010895
:1008700000F8011C09980FA9A1EB0807FF1D00B1A2
:100880000120411901EBEA70A1693844081A401EA1
:10089000A0612078C00602D42046AFF300800998FA
:1008A00028B1D4E901219047206A401C20622078B9
:1008B000C00622D52046AFF300801EE0002E04DBE8
:1008C000B34502DD01A8805D00E03020D4E90121BC
:1008D0009047206A401C2062761CAAF101005FEA62
:1008E000000A0AD100F058F8C0680168405CD4E9F9
:1008F00001219047206A401C2062281EA5F10105B5
:10090000DCDC07E0D4E9012118F8010B9047206AEC
:10091000401C2062381EA7F10107F3DC2046AFF32C
:100920000080032011B041E601694A1C0261087889
:10093000704700B58FB0CDE901310021059105491F
:100940007944CDE9031011466846FFF7D3FC0FB098
:1009500000BD0000E5FFFFFF0A6802F8010B0A6016
:100960007047D1E900239A4202D2531C0B601070E9
:1009700070470000074B70B50D467B44FFF7D9FF69
:100980000446284600F004F910B14FF0FF3070BD66
:10099000204670BDC7210000004870474405002074
:1009A00030B5B0F10A024FEA900E71F100034EEA41
:1009B000817EB0EB0E0061EB91014FEA101E4EEA12
:1009C000017E10EB0E0041EB11114FEA102E4EEAA2
:1009D000016E10EB0E0041EB11214FEA104E4EEA72
:1009E000014E10EB0E0041EB1141401841F10001A6
:1009F0004FEAD00040EA41704FEAD10110EB800588
:100A00004FEA810444EA907444EB01046D1944EB0D
:100A10000404521BA3414FF0000348BF0A3200D523
:100A200030BD401C41F1000130BD00002DE9F04116
:100A30001F46044603260168072A01F4006004DB10
:100A400008B116A505E016A503E008B115A500E05C
:100A500015A521F010002060A069C01EA0610FB193
:100A6000401EA0612046AFF300804FB1D4E90121C0
:100A700038469047206A401C2062C01C206206E075
:100A8000206AFAE7D4E9012115F8010B9047761E98
:100A9000F8D22046AFF30080BDE8F0814E414E0011
:100AA0006E616E00494E4600696E66002DE9F047A2
:100AB000814616468AB0354878440DC88DE80D0049
:100AC00032487844801C03AC0DC884E80D0041F620
:100AD0009B300844372190FBF1F290FBF1F5A5F132
:100AE000800501FB12041B3C02D56442012000E09A
:100AF0000020DFF898A080460027FA44AAF1BE0A39
:100B00000EE0E0070AD03246684607EB47010123B2
:100B10000AEB810100F043FB8DE8070064107F1CA5
:100B2000002CEED1194F7F44AE3F19E0E80715D0F5
:100B300007EB04100DF1180A90E80E008AE80E0089
:100B4000C068F04201D1981908903246012306A9E5
:100B500003A800F024FB03AB83E807006D10641CBE
:100B6000002DE3D14FF0010332466946B8F1000F82
:100B700003A802D000F0FEFA01E000F010FBC9E982
:100B80000001C9F808200AB0BDE8F087044400005D
:100B9000007B00F08000704700487047240500206B
:100BA0007546FFF7F9FFAE4605006946534620F04B
:100BB0000700854618B020B5FFF726FBBDE82040AA
:100BC0004FF000064FF000074FF000084FF0000B09
:100BD00021F00701AC46ACE8C009ACE8C009ACE8BC
:100BE000C009ACE8C0098D46704710B50446AFF3A4
:100BF00000802046BDE81040FFF7F1BA4FF0013CFD
:100C000050F8042B51F8043B9A4221D1A2EB0C037B
:100C1000934313EACC1317D150F8042B51F8043B3B
:100C20009A4215D1A2EB0C03934313EACC130BD1D8
:100C300050F8042B51F8043B9A4209D1A2EB0C0363
:100C4000934313EACC13DBD04FF00000704700BF92
:100C5000D01A01BAB1FA81F101F0180122FA01F0BB
:100C6000CB40C1F12001DBB2C0B2C01A2CFA01F3B3
:100C7000D11A914311EAC311E6D170475FEA400CE3
:100C800008BF91F0000F4FEA8C234FEAC12243EADC
:100C900051514FEA1C5018BF00F5F0404FEA3000A8
:100CA00018BF41F000415FEA6C5C00F02980BCF1A4
:100CB000FF3F08BF40F080407047130C06BF12048E
:100CC0004FF0100C4FF0000C130E04BF12020CF189
:100CD000080C130F04BF12010CF1040C930F04BF96
:100CE00092000CF1020CD30F04BF52000CF1010C66
:100CF00011464FF00002A0F11F00A0EB0C0070475E
:100D000011F0004F08BF704731F000413FF4D5AFFC
:100D10000B0C06BF09044FF0100C4FF0000C0B0E2B
:100D200004BF09020CF1080C0B0F04BF09010CF100
:100D3000040C8B0F04BF89000CF1020CCB0F04BF15
:100D400049000CF1010CCCF12003A0EB0C0022FABD
:100D500003F302FA0CF241EA030100F101007047CB
:100D600020F07F4C80EA030023F07F47ACEB0703C1
:100D700003F57C5300F0004003F1FF032DE98049A7
:100D80004FEA154B09B44FEA144325EA0B4E24EA07
:100D900003480FF2042606EB132749083E785FEA62
:100DA000320203FB0667C7F5000707FB06F64FEAAA
:100DB00054374FEAD64606F1020607FB066CCCF123
:100DC000005C4FEA1C472CEA074C07FB06F40CFBBF
:100DD00006F504EB15464FEA961634BF00204FF097
:100DE00000404FEAD13706FB07FC4FEA1C4C0CFBD6
:100DF0000BF7D21B03FB0CF761EB07010CFB0EF7A3
:100E0000B0EB074072EB17420CFB08F734BFA2EBC4
:100E10000742B2EB074261EB17414FEA0C444FEA3D
:100E2000910706FB07FC4FEA1C4C0CFB0BF7B0EBE1
:100E3000C74072EB573203FB0CF734BFA2EBC7423B
:100E4000B2EBC74261EB57310CFB0EF7B0EBC700BA
:100E500072EB57720CFB08F734BFA2EBC702B2EB80
:100E6000C70261EB5771039F4FEA816141EA92111A
:100E700004EBCC044FEAD1374FEA826206FB07FC51
:100E800042EA90124FEA80604FEA1C4C0CFB0BF7D1
:100E9000D21B03FB0CF761EB07010CFB0EF7B0EB69
:100EA000074072EB17420CFB08F734BFA2EB074276
:100EB000B2EB074261EB17414FEA8C554FEA9107BD
:100EC00004EB9C2406FB07FC4FEA1C4C0CFB0BF7C5
:100ED000B0EBC74072EB573203FB0CF734BFA2EB09
:100EE000C742B2EBC74261EB57310CFB0EF7B0EBD8
:100EF000C70072EB57720CFB08F734BFA2EBC702B6
:100F0000B2EBC70261EB577115EB4C254FEA8161DB
:100F100041EA92114FEA82624FEAD13742EA9012D7
:100F200006FB07FC44F100044FEA80604FEA1C4CCA
:100F30000CFB0BF7D21B03FB0CF761EB07010CFB5F
:100F40000EF7B0EB074072EB17420CFB08F734BF0B
:100F5000A2EB0742B2EB074261EB174115EB1C1500
:100F60004FEA813141EA92414FEA823242EA9042AD
:100F70004FEA80304FEA0C7644F1000448EA03431C
:100F80004EEA0B484FF0000EB2EB080C71EB030772
:100F900024BF624639464EEB0E0E4FF0000B001890
:100FA000524149414BEB0B0BB2EB080C71EB0307C1
:100FB0007BF1000B24BF624639464EEB0E0E4FF01C
:100FC000000B0018524149414BEB0B0BB2EB080CE4
:100FD00071EB03077BF1000B24BF624639464EEBF1
:100FE0000E0E51EA020718BF46F0010616EB0E7608
:100FF00055F1000254F1000103D5BDE88901BDE8B7
:101000000088BDE88901BDE80048B619524141EBAE
:101010000101A3F10103704780807F7E7D7C7B7A94
:101020007978777676757473727171706F6E6E6D94
:101030006C6C6B6A6A69686867666665646463633A
:1010400062616160605F5F5E5E5D5D5C5C5B5B5AC0
:101050005A5959585857575656555555545453532D
:1010600052525251515050504F4F4F4E4E4D4D4D88
:101070004C4C4C4B4B4B4A4A4A49494948484847D3
:101080004747474646464545454444444443434311
:101090004342424242414141002B9C4630D47700BA
:1010A0002BD01CB54FEA370703B44FF010004FF0B8
:1010B0001001BAF1000F06D0BCF1000FDCBF40F008
:1010C000080040F008014FF000000FBCBDE81040E0
:1010D0000BF1010BBBF1010F08BF5FEA170722BF3D
:1010E00012F1010211F101014FF0004143F100033F
:1010F00000F0004043EA00007047F9D35708D0E7FA
:1011000046EA064613F1400F4FEA16461FDD13F17B
:10111000200FDFBF16430A46002120335B42BED0BA
:10112000C3F1200746EA064602FA07F74FEA1646D9
:1011300046EA0706C3F1200722FA03F201FA07F78D
:1011400021FA03F14FF0000342EA0702A7E746EA5B
:10115000020646EA06464FEA164646EA0106BCBFC4
:1011600046EA0646360C4FF000034FF000024FF0FF
:10117000000194E72DE9804C9A46934670B491E8BB
:10118000380007C831EA400C48BF34EA430C03D5A5
:10119000FFF7E6FDFFF780FFF0BCBDE8008C2DE90E
:1011A000804C9A46934670B491E8380007C810F016
:1011B000804F08BF13F0804F03D100F005F8FFF710
:1011C0006BFFF0BCBDE8008C20F07F4780EA030095
:1011D00023F07F4C07EB0C03A3F57C5300F0004099
:1011E000A3F1FE0392F0000F00F0B38095F0000F22
:1011F00000F077802DE901494FEA11404FEA14468B
:1012000021EA004800FB06FC24EA064708FB06F634
:1012100007FB08F800FB07F718EB06484CEB164CE9
:101220004FEA124B18EB07484FEA15464CEB1740B4
:1012300022EA0B4E0BFB06FC25EA06470EFB06F6E0
:1012400007FB0EFE0BFB07F71EEB064E4CEB164C96
:101250004FF000061EEB074E4CEB174B18EB0B083C
:1012600040F1000018EB0E0B58EB000840F10000B5
:101270008F1A4FF000013CBFC943661B14BFB5EB8A
:10128000040C00213CBFC943F61B4FEA17444EEA49
:101290008E0E27EA04454FEA1C4704FB07622CEA3E
:1012A000074C05FB07F70CFB05F604FB0CFC16EBE3
:1012B000074642EB174216EB0C4642EB1C421BEB77
:1012C000060658EB0202414146EA9E0601D5BDE8FA
:1012D0000189B619524141EB0101A3F10103BDE8B7
:1012E00001894FEA14454FEA114724EA054621EAED
:1012F000074C05FB07F406FB07F70CFB06F105FBA3
:101300000CFC11EB074144EB17444FEA124711EB79
:101310000C4144EB1C4422EA074C05FB07F206FB98
:1013200007F70CFB06F605FB0CFC16EB074642EB39
:10133000174216EB0C4642EB1C456A1854F10001AB
:1013400048BF7047B619524141EB0101A3F10103B7
:10135000704795F0000F37D04FEA11424FEA14471B
:1013600021EA024624EA074C02FB07F106FB07F7D5
:101370000CFB06F402FB0CFC14EB074441EB174199
:101380004FEA154714EB0C4441EB1C4125EA074C8E
:1013900002FB07F506FB07F70CFB06F602FB0CFC4D
:1013A00016EB074645EB174516EB0C4645EB1C4282
:1013B000121951F1000148BF7047B619524141EB73
:1013C0000101A3F1010370474FEA14454FEA1147A9
:1013D00024EA054621EA074C05FB07F106FB07F75F
:1013E0000CFB06F24FF0000605FB0CFC12EB07426B
:1013F00041EB174112EB0C4251EB1C4148BF7047C7
:10140000921841EB0101A3F10103704700BFFEE711
:1014100008B500BF0A48806940F0040008498861A7
:101420000846806900F00400009000BF00BF00F093
:10143000A9F84FF47A7001F001FB002008BD00000C
:101440000010024010B56421002000F0C1F808B976
:10145000002010BD6421012000F0BAF808B9002076
:10146000F7E71E2001F0F4FA0121024800F042FBE8
:10147000EFE700000008014070B50024002506E0F9
:101480006006040EFFF7DEFF0443681CC5B2082D9A
:10149000F6DB204670BD00007CB5054600200090BC
:1014A000019000F083F800220121344800F034FB61
:1014B000012001F0C3FA01221146304800F02CFB54
:1014C0001E2001F0C5FA00F05DF80A21002000F0AE
:1014D0007FF808B901207CBD0A21012000F078F8CE
:1014E00008B90120F7E70A21002000F071F808B9D7
:1014F0000120F0E7002605E0FFF7BEFF0DF806002B
:10150000701CC6B2052EF7DB9DF8000050B99DF89F
:10151000010038B99DF8020020B99DF8030008B910
:101520000220D8E79DF801109DF8002041EA022032
:1015300002F016F80646124901F050FF28609DF8A7
:1015400003009DF8021040EA012004B204F40040B8
:1015500048B1C4F30E01484202F002F806460849B9
:1015600001F03CFF06E0204601F0FAFF0646044980
:1015700001F034FF68600020ADE700000008014082
:10158000000020411FB500200090019002900390C0
:10159000012000900020019001200290694602483D
:1015A00000F008F91FBD0000000801401FB5002031
:1015B0000090019002900390012000900190039010
:1015C0006946024800F0F6F81FBD0000000801401F
:1015D00070B504460D4600F0A5FA064609E000F095
:1015E000A1FA801BA84201D9002070BD0A2001F099
:1015F0002FFA0121034800F07DFAA042EFD101202B
:10160000F3E70000000801407047000070B5044691
:10161000002594F82100022803D00420A0630125AE
:10162000C1E02068006820F00E0021680860206892
:10163000006820F00100216808605C492068884249
:1016400052D95A4978392068884201D1012047E0AF
:10165000564964392068884201D1102040E053493E
:1016600050392068884201D1801539E04F493C3912
:101670002068884201D1801432E04C492839206822
:10168000884202D14FF480302AE04849143920685A
:10169000884202D14FF4801022E0444920688842F9
:1016A00001D140041CE042492068884201D1012058
:1016B00016E03F4914312068884201D110200FE024
:1016C0003B4928312068884201D1801508E038491B
:1016D0003C312068884201D1801401E04FF4803011
:1016E0003349091F086051E0304978392068884241
:1016F00001D1012047E02D4964392068884201D199
:10170000102040E0294950392068884201D18015D5
:1017100039E026493C392068884201D1801432E002
:10172000224928392068884202D14FF480302AE0CB
:101730001E4914392068884202D14FF4801022E0FB
:101740001A492068884201D140041CE018492068E9
:10175000884201D1012016E01549143120688842E1
:1017600001D110200FE0124928312068884201D1B0
:10177000801508E00E493C312068884201D1801470
:1017800001E04FF48030094980394860012084F835
:10179000210000BF002084F8200000BF606B10B162
:1017A0002046616B8847284670BD000080000240DB
:1017B000080402402DE9F847024600239C467BE1DD
:1017C0004FF0010808FA03F4D1F8008008EA040099
:1017D000A0427DD1DFF8F4A2D1F80480A8EB0A0979
:1017E000D0453AD014DCB8F1030F50D009DCB8F181
:1017F000000F31D0B8F1010F1CD0B8F1020F49D160
:1018000020E0B8F1110F18D0B8F1120F42D11EE04C
:10181000B9F5881F25D006DCB9F5803F20D0B9F591
:10182000801F37D11AE0B9F5001F18D0B9F5041F91
:1018300030D117E0D1F80CC02DE0D1F80C8008F1C0
:10184000040C28E0D1F80C8008F1080C23E0D1F852
:101850000C8008F10C0C1EE000BF00BF00BF00BFF1
:1018600000BF00BFD1F80880B8F1000F02D14FF0DF
:10187000040C0BE0D1F80880B8F1010F03D14FF050
:10188000080C146102E04FF0080C546103E04FF0C3
:10189000000C00E000BF00BFFF2801D8904601E027
:1018A00002F104084646FF2802D84FEA830803E005
:1018B000A3F108084FEA88084746D6F800804FF0A1
:1018C0000F0909FA07F928EA09080CFA07F900E0F4
:1018D0007AE048EA0908C6F80080D1F8048008F0E8
:1018E0008058B8F1805F6FD100BFDFF8E481D8F88D
:1018F000188048F00108DFF8D891C9F81880C84668
:10190000D8F8188008F00108CDF8008000BF00BFAB
:101910004FEAB9384FEA930958F829504FEA8378CB
:101920004FEA18794FF00F0808FA09F825EA080578
:10193000DFF8A081424502D14FF0000824E0DFF833
:101940009881424502D14FF001081DE0DFF88C81FB
:10195000424502D14FF0020816E0DFF8848142458B
:1019600002D14FF003080FE0DFF87881424502D141
:101970004FF0040808E0DFF87081424502D14FF0D3
:10198000050801E04FF006084FEA83794FEA19791C
:1019900008FA09F848EA0505DFF850814FEA93098B
:1019A00048F82950D1F8048008F48038B8F5803F11
:1019B0000BD1DFF83C81D8F8008048EA0008DFF856
:1019C0003091C9F800800AE075E0DFF82481D8F88A
:1019D000008028EA0008DFF81891C9F80080D1F8E3
:1019E000048008F40038B8F5003F0ED1DFF800811C
:1019F00008F10408D8F8008048EA0008DFF8F09001
:101A000009F10409C9F800800DE0DFF8E48008F16D
:101A10000408D8F8008028EA0008DFF8D49009F11B
:101A20000409C9F80080D1F8048008F48018B8F5DA
:101A3000801F0ED1DFF8B88008F10808D8F80080C0
:101A400048EA0008DFF8A89009F10809C9F8008001
:101A50000DE0DFF89C8008F10808D8F8008028EA3B
:101A60000008DFF88C9009F10809C9F80080D1F866
:101A7000048008F40018B8F5001F0ED1DFF870805C
:101A800008F10C08D8F8008048EA0008DFF86090F8
:101A900009F10C09C9F800800DE0DFF8548008F165
:101AA0000C08D8F8008028EA0008DFF8449009F113
:101AB0000C09C9F800805B1CD1F8008028FA03F8F3
:101AC000B8F1000F7FF47CAEBDE8F887000011107C
:101AD0000010024000080140000C014000100140CD
:101AE0000014014000180140001C014008000140A2
:101AF00000040140024693680B400BB1012000E056
:101B00000020704710B5C26821EA020302EA01040E
:101B100043EA0443036110BD0AB1016101E00B0413
:101B20000361704701480068704700001000002002
:101B30000348006803490978084401490860704770
:101B4000100000201800002010B50848006840F080
:101B5000100006490860052000F080F80F2000F012
:101B600007F800F02BF8002010BD00000020024014
:101B700070B504460E4800784FF47A71B1FBF0F06E
:101B80000C490968B1FBF0F5284600F0E3FB08B109
:101B9000012070BD102C07D200222146501E00F0FB
:101BA0001EF80548046001E00120F2E70020F0E79C
:101BB000180000200000002014000020704701469B
:101BC0000846002809DB00F01F0301229A40430960
:101BD0009B0003F1E023C3F8002100BF70472DE90B
:101BE000F05F80460D461646002700F0FBFE0746D4
:101BF00039462A46334601F00700C0F1070ABAF118
:101C0000040F02D94FF0040A01E0C0F1070AD146DF
:101C100000F1040ABAF1070F02D24FF0000A01E006
:101C2000A0F1030AD4464FF0010A0AFA09FAAAF110
:101C3000010A0AEA020A0AFA0CFA4FF0010B0BFA3F
:101C40000CFBABF1010B0BEA030B4AEA0B04214638
:101C5000404600F0CFFEBDE8F09F000000BF00F05E
:101C60000702064B19684FF6FF031940044B0B435C
:101C700043EA0221014B196000BF70470CED00E000
:101C80000000FA0570B504460D460CB9012070BD80
:101C90005A48006800F00700A8420ED25748006872
:101CA00020F007002843554908600846006800F006
:101CB0000700A84201D00120E9E7207800F00200E7
:101CC00002281DD1207800F00400042805D14C48DA
:101CD000406840F4E0604A494860207800F008001D
:101CE000082805D14648406840F46050444948609F
:101CF0004348406820F0F000A1680843404948602C
:101D0000207800F0010078B36068012806D13C48D3
:101D1000006800F4003090B90120B8E7606802283C
:101D200006D13748006800F0007040B90120AEE7E6
:101D30003348006800F0020008B90120A7E73048E6
:101D4000406820F00300616808432D494860FFF7B0
:101D5000E9FE064609E0FFF7E5FE801B41F2883107
:101D6000884202D9032092E707E02548406800F046
:101D70000C006168B0EB810FEDD12048006800F0E5
:101D80000700A8420ED91D48006820F0070028432C
:101D90001A4908600846006800F00700A84201D010
:101DA000012074E7207800F00400042807D11448CB
:101DB000406820F4E060E1680843114948602078F9
:101DC00000F00800082808D10D48406820F4605051
:101DD000216940EAC1000A49486000F03FF808491B
:101DE0004968C1F30311074A515CC84006490860BD
:101DF00006480068FFF7BCFE002048E700200240CC
:101E0000001002402A3600080000002014000020C4
:101E100001480068704700000000002000B5FFF78F
:101E2000F7FF04494968C1F30221034A515CC840E5
:101E300000BD0000001002403A36000800B5FFF770
:101E4000E7FF04494968C1F3C221034A515CC84015
:101E500000BD0000001002403A360008F0B585B021
:101E60000FF26C0C9CE8E01001A8A0E8E0101CA5A3
:101E70002D68009500210022002300240020194D28
:101E8000696801F00C05F5B1042D02D0082D19D1B7
:101E900001E0154819E001ADC1F38346AC5D01F4E2
:101EA000803555B10F4D6D68C5F340451DF80520CF
:101EB0000D4D6543B5FBF2F302E00C4D04FB05F359
:101EC000184602E000BF084800BF00BF05B0F0BDE3
:101ED00002030405060708090A0B0C0D0E0F10106B
:101EE000010200000010024000127A0000093D00CB
:101EF000F8B504460CB90120F8BD207800F00100C7
:101F0000002878D0F848406800F00C0004280CD075
:101F1000F548406800F00C00082811D1F2484068EC
:101F200000F48030B0F5803F0AD1EF48006800F43B
:101F3000003000285FD0606800285CD10120DBE71A
:101F400000BF6068B0F5803F06D1E748006840F404
:101F50008030E549086028E0606858B9E2480068C8
:101F600020F48030E04908600846006820F48020B2
:101F700008601AE06068B0F5A02F0BD1DA4800685D
:101F800040F48020D84908600846006840F480305A
:101F900008600AE0D448006820F48030D249086024
:101FA0000846006820F48020086000BF606888B19F
:101FB000FFF7B8FD054606E0FFF7B4FD401B6428B7
:101FC00001D9032098E7C848006800F400300028D1
:101FD000F2D010E0FFF7A6FD054606E0FFF7A2FDF0
:101FE000401B642801D9032086E7BF48006800F43D
:101FF00000300028F2D1207800F00200022857D1EA
:10200000B948406800F00C0050B1B748406800F093
:102010000C00082818D1B448406800F4803098B902
:10202000B148006800F0020020B12069012801D009
:10203000012061E7AC48006820F0F800616940EADF
:10204000C100A949086033E02069E8B10120A7492F
:102050000860FFF767FD054606E0FFF763FD401BDC
:10206000022801D9032047E79F48006800F00200DA
:102070000028F2D09C48006820F0F800616940EA2E
:10208000C1009949086013E0002098490860FFF7F3
:1020900049FD054606E0FFF745FD401B022801D932
:1020A000032029E79048006800F002000028F2D1E0
:1020B000207800F0080008282DD1A069B8B10120CF
:1020C0008B490860FFF72EFD054606E0FFF72AFD65
:1020D000401B022801D903200EE78348406A00F024
:1020E00002000028F2D0012000F01CFB13E00020C9
:1020F0007F490860FFF716FD054606E0FFF712FD71
:10210000401B022801D90320F6E67748406A00F018
:1021100002000028F2D1207800F00400042873D1D6
:1021200000277148C06900F0805070B900BF6E4848
:10213000C06940F080506C49C8610846C06900F031
:102140008050009000BF00BF01276A48006800F47B
:102150008070B0B96748006840F4807065490860D5
:10216000FFF7E0FC054606E0FFF7DCFC401B6428B7
:1021700001D90320C0E65F48006800F480700028A1
:10218000F2D000BFE068012806D15748006A40F04D
:1021900001005549086227E0E06858B95248006AD2
:1021A00020F00100504908620846006A20F004004F
:1021B000086219E0E06805280BD14B48006A40F03E
:1021C0000400494908620846006A40F001000862BC
:1021D0000AE04548006A20F00100434908620846C9
:1021E000006A20F00400086200BFE068A0B1FFF7B9
:1021F00099FC054609E0FFF795FC401B41F2883148
:10220000884202D9032077E622E03748006A00F0CE
:1022100002000028EFD012E0FFF784FC054608E03A
:10222000FFF780FC401B41F28831884201D903202E
:1022300062E62D48006A00F002000028F0D1012F6C
:1022400005D12948C06920F080502749C86100BFE6
:10225000E069C8B32448406800F00C00082860D04A
:10226000E069022848D1002020490866FFF75AFC9F
:10227000054606E0FFF756FC401B022801D9032063
:102280003AE61948006800F000700028F2D1206A90
:10229000B0F5803F07D11448406820F40030A168B1
:1022A000084311494860D4E9080108430E494968C8
:1022B00021F4741108430C49486001200B49086659
:1022C000FFF730FC054607E03DE0FFF72BFC401B25
:1022D000022801D903200FE60348006800F00070CF
:1022E0000028F2D02FE0000000100240000042421F
:1022F0008004424200700040002014490866FFF745
:1023000011FC054606E0FFF70DFC401B022801D931
:102310000320F1E50E48006800F000700028F2D1BB
:1023200011E0E069012800D1E6E50948466806F4B5
:102330008031206A814204D106F47011606A8142C2
:1023400001D00120D8E50020D6E50000000042427F
:102350000010024070B504462546681EB0F1807F2B
:1023600001D301200FE0681E4FF0E02148610F21EA
:102370004FF0FF3000F03EFB00204FF0E02188617D
:1023800007200861002070BD704700002DE9F0476C
:102390000446206805682068C668206847694FF0D1
:1023A0000008C14605F00F08B8F1000F0AD105F08A
:1023B000200038B106F0200020B1204600F0F6F9E8
:1023C000BDE8F087B8F1000F71D007F0010018B92F
:1023D00006F4907000286AD005F0010030B106F4D0
:1023E000807018B1E06B40F00100E06305F004007C
:1023F00030B107F0010018B1E06B40F00200E0637B
:1024000005F0020030B107F0010018B1E06B40F0B8
:102410000400E06305F0080048B106F0200010B9A0
:1024200007F0010018B1E06B40F00800E063E06BDA
:1024300068B305F0200028B106F0200010B1204656
:1024400000F0B4F920684069C0F38019E06B00F037
:10245000080010B9B9F1000F22D0204600F086F92B
:102460002068406900F04000B0B12068406920F069
:10247000400021684861606B50B11848616B486347
:10248000606BFFF7C3F810B1606B416B88470CE0DD
:102490002046FFF779FF08E02046FFF775FF04E0CC
:1024A0002046FFF771FF0020E06389E7FFE705F0B2
:1024B000800030B106F0800018B1204600F044FAE8
:1024C0007EE705F0400030B106F0400018B120462C
:1024D00000F05CF974E700BF72E7000059270008BC
:1024E00010B504460CB9012010BDA06900B100E090
:1024F00000BF94F8390028B9002084F8380020463D
:1025000000F028F8242084F839002068C06820F4FE
:1025100000502168C860204600F098F920680069E2
:1025200020F49040216808612068406920F02A006A
:10253000216848612068C06840F400502168C86084
:102540000020E063202084F8390084F83A0000205D
:10255000CAE7000010B586B00446284920688842C2
:102560004AD100BF00BF2648806940F004002449DA
:1025700088610846806900F00400019000BF00BF38
:1025800000BF00BF00BF0846806940F004008861BA
:102590000846806900F00400019000BF00BF00BF42
:1025A00000BF00BF0846806940F48040886108464B
:1025B000806900F48040019000BF00BF00BF481553
:1025C000029002200390012004900320059002A9AC
:1025D0000C48FFF7EFF84FF4806002900020039062
:1025E00002A90848FFF7E6F82520FFF7E8FA0322DA
:1025F00011462520FFF7F3FA06B010BD0038014060
:10260000001002400008014010B5034693F83A005C
:1026100020282FD101B10AB9012010BD00BF93F8C5
:102620003800012801D10220F7E7012083F83800A3
:1026300000BF99629A85DA850020D863222083F84A
:102640003A0000BF002083F8380000BF1868C06857
:1026500040F480701C68E0601868406940F0010038
:102660001C6860611868C06840F020001C68E06069
:102670000020D2E70220D0E710B5044620492068A8
:1026800088423BD11F48008800F4004088BB1D48A9
:10269000008800F4804070B11B4800780A2803D0FD
:1026A00000201849088024E01648008840F40040C3
:1026B000144908801DE0144800780D2806D11148FF
:1026C000008840F480400F49088012E00E480078EE
:1026D0000C490988C1F30D010C4A5054094800887F
:1026E000401C0849088008460088C72801DD0020F2
:1026F0000880012204490648FFF786FF10BD00004C
:10270000003801400C0000200E0000201C000020BA
:10271000E4000020704700BFFEE700BFFEE77047FF
:102720007047000008B508490968C9084FF47A7273
:10273000B1FBF2F14143009100BF00BF00994A1E76
:1027400000920029F9D108BD00000020704710B5A3
:10275000FFF7EEF910BD704770B505466C6A0020B2
:10276000E085E0842046FFF70FFE70BD0168C96870
:1027700021F490710268D1600168496921F001017A
:1027800002685161202180F83A10704710B5044664
:102790002068C06820F040002168C860202084F8CC
:1027A00039002046FFF7B6FF002010BD70B5044683
:1027B00094F83A00222847D1A068B0F5805F0CD188
:1027C000206950B90025A66A20684068C0F3080057
:1027D0003080A06A801CA06215E0A56A0026A0686F
:1027E000B0F5805F03D0A06828B9206918B92068C7
:1027F0004068287004E02068406800F07F0028707E
:10280000A06A401CA062E08D401E80B2E085C8B97D
:102810002068C06820F020002168C8602068C06877
:1028200020F480702168C8602068406920F00100B1
:1028300021684861202084F83A002046FFF71CFFF9
:10284000002070BD0020FCE70220FAE770B50446C6
:102850002168096921F44051E2681143226811613D
:102860002269A1681143626941EA02052168C968C9
:1028700041F20C62914329432268D1602168496981
:1028800021F44071A2691143226851612D4A2168E7
:10289000914202D1FFF7D2FA01E0FFF7BFFA00EB55
:1028A000C00101EB001162689200B1FBF2F100EB94
:1028B000C00202EB001263689B00B2FBF3F26423D8
:1028C000B2FBF3F202EBC20303EB0212A1EB8201B3
:1028D000322202EB01116422B1FBF2F101F0F001AE
:1028E00000EBC00202EB001263689B00B2FBF3F244
:1028F0006423B2FBF3F201EB021200EBC00101EB27
:10290000001163689B00B1FBF3F100EBC00303EB24
:1029100000136668B600B3FBF6F36426B3FBF6F368
:1029200003EBC30606EB0313A1EB8301322303EB96
:1029300001116423B1FBF3F101F00F01114422688E
:10294000916070BD00380140014691F8390021289E
:1029500028D18868B0F5805F0BD1086948B90A6A48
:102960001088C0F308000B685860086A801C086271
:1029700005E00B6A581C086218780B685860C88C10
:10298000401E80B2C88458B90868C06820F0800032
:102990000B68D8600868C06840F040000B68D860D9
:1029A000002070470220FCE710B50248FFF7EEFC5C
:1029B00010BD0000E400002000BFFEE7490050EA1F
:1029C000C12018BF04204A0D18BF40F0010040F29A
:1029D000FF72B2EB515F08BF40F00200012808BF50
:1029E0000520704702480068C0F3022070470000CD
:1029F0000CED00E010B5002804DB0A07130E054AB1
:102A0000135406E00A07140E034A00F00F031B1FBD
:102A1000D45410BD00E400E018ED00E030380A287E
:102A200001D2012070470020704700BF70470000AE
:102A300001490860704700000400002010B50446FA
:102A40004FF47A7104FB01F000F002F810BD0000B1
:102A500070B5034600224FF0E02675690D4E3668CA
:102A600003FB06F44FF0E026B16910E04FF0E026DA
:102A7000B06988420BD0884202D20E1A324402E07A
:102A80002E1A0E4432440146A24200D300E0EDE784
:102A900000BF70BD040000202DE9F04186B08046E3
:102AA0000D46144600200F237F2201460090282067
:102AB00000F0ACF9002027237F2218210090282065
:102AC00000F0A4F984B9404600F05CFC17A2CDE9FF
:102AD00000010A2103A8FDF7B7FB102303AA002178
:102AE000282000F061FB05E0102312A2002128201D
:102AF00000F05AFB84B9284600F044FC0FA2CDE94F
:102B000000010A2103A8FDF79FFB102303AA182147
:102B1000282000F049FB05E0102306A218212820F8
:102B200000F042FB06B0BDE8F0810000252E3166C2
:102B3000252500004572726F72000000252E316657
:102B40004300000000BF054A126802F04002002A5C
:102B5000F9D0C2B2014B1B1D1A607047003801400A
:102B600000B585B000BF00BF1E48806940F0080076
:102B70001C4988610846806900F00800009000BF89
:102B800000BF00BF00BF00BF0846806940F04000A2
:102B900088610846806900F04000009000BF00BFD7
:102BA00000BF202001900120029003900320049098
:102BB00001A90D48FEF7FEFD2020019001A90B4858
:102BC000FEF7F8FD00BF012220210748FEF7A4FF11
:102BD00000BF00BF012220210448FEF79DFF00BF77
:102BE00005B000BD00100240000C0140001801407B
:102BF0001FB5FEF7A9FF4FF4E01000F057FB482087
:102C0000FFF716FFFFF7ACFF4FF4E13000F082FB57
:102C100000F01AF900F0B2F8102332A200211420BB
:102C200000F0C2FA102333A218210A2000F0BCFAE7
:102C300000F008FA4FF4FA60FFF700FFFEF7E8FB38
:102C400088B100F09BF810232EA200210A2000F08A
:102C5000ABFA10232FA21821002000F0A5FA00F0F3
:102C6000F1F900BFFEE700F089F810232EA2002141
:102C7000084600F099FA10232DA21821002000F038
:102C800093FA00F0DFF92BE002A8FEF705FC0446FA
:102C90002246DDE90201FFF7FFFE00F0D3F984B917
:102CA000039800F06FFB05460E46029800F06AFBA1
:102CB00007463A460B4620A0CDE90056FDF7B8FA84
:102CC00003E0214626A0FDF7B3FA00BF20212A48E1
:102CD000FEF718FF00BF4FF4FA60FFF7AFFE00BF2A
:102CE000D2E700004448543232204D6F6E69746F51
:102CF00072000000496E697469616C697A696E6777
:102D00002E2E2E0053656E736F72204572726F7295
:102D100021000000436865636B20436F6E6E65633E
:102D200074696F6E0000000048756D693A200000FC
:102D300054656D703A20000048756D696469747956
:102D40003A20252E316625252C2054656D7065723C
:102D500061747572653A20252E3166430A000000C1
:102D600053656E736F722072656164206572726F55
:102D7000723A2025640A0000000C014070B500245E
:102D80000CE0002506E00020074901EBC5010855CD
:102D9000681CC5B2802DF6DB601CC4B2082CF0DBC9
:102DA00000F050F970BD000024010020F0B5144679
:102DB00000267F2801DC3F2900DDF0BD0B46CF1740
:102DC00001EB5777C7F3C702CF1701EB5777FF1017
:102DD000A1EBC707FDB20123AB40DEB24CB10A4BF9
:102DE00003EBC0039B5C3343074F07EBC007BB54A7
:102DF00008E0054B03EBC0039B5CB343024F07EBBA
:102E0000C007BB5400BFD8E7240100202DE9F047DC
:102E100006460F4690469946DDF820A034460CE061
:102E20003D4606E0524629462046FFF7BFFF681C94
:102E3000C5B24D45F6DD601CC4B24445F0DD00F07E
:102E400001F9BDE8F087000000B585B000BF794802
:102E5000806940F01000774988610846806900F079
:102E60001000009000BF00BF00BF0846806940F01E
:102E7000200088610846806900F02000009000BFB3
:102E800000BF00BF0846806940F480708861084632
:102E9000806900F48070009000BF00BF01200290A4
:102EA00001900390049001A96348FEF783FC012080
:102EB00002900220019001200390049001A95E4835
:102EC000FEF778FC01200290082001900120039079
:102ED000049001A95948FEF76DFC012002904020A2
:102EE000019001200390049001A95448FEF762FC70
:102EF00001200290C003019001200390049001A9D9
:102F00004F48FEF757FC00BF012240214B48FEF717
:102F100003FE00BF00BF012208214848FEF7FCFD68
:102F200000BF00BF012211464348FEF7F5FD00BF78
:102F300000BF012202214048FEF7EEFD00BF00BFA6
:102F400000224FF400413E48FEF7E6FD00BF64203A
:102F5000FFF774FD00BF0122D1033948FEF7DCFD05
:102F600000BF0021AE2000F04FF90021D52000F075
:102F70004BF90021502000F047F90021A82000F073
:102F800043F900213F2000F03FF90021D32000F059
:102F90003BF90021084600F037F90021402000F0FD
:102FA00033F900218D2000F02FF90021142000F0CA
:102FB0002BF90021202000F027F90021022000F049
:102FC00023F90021A12000F01FF90021C82000F002
:102FD0001BF90021DA2000F017F90021122000F07F
:102FE00013F90021812000F00FF90021EF2000F0FB
:102FF0000BF90021D92000F007F90021F12000F0A1
:1030000003F90021DB2000F0FFF80021302000F060
:10301000FBF80021A42000F0F7F80021A62000F022
:10302000F3F80021AF2000F0EFF8FFF7A7FE05B09E
:1030300000BD0000001002400010014000140140DB
:103040000020014070B500241CE004F1B001C8B2BA
:10305000002100F0D9F80021084600F0D5F8002141
:10306000102000F0D1F8002508E0084901EBC50167
:10307000085D012100F0C8F8681CC5B2802DF4DBA2
:10308000601CC4B2082CE0DB70BD000024010020ED
:103090002DE9FE4F80460E4615461C46DDF8309061
:1030A000B346002001902046E31704EB5373DB1076
:1030B00021464FEAE47C04EB5C7C4FEAEC0CA4EB89
:1030C000CC0CBCF1000F02D04FF0010C01E04FF02E
:1030D000000C6344224604EBD27C4FEA6C0C03FBE9
:1030E0000CF3DBB20093A5F12000C5B20C2C06D185
:1030F00005EB4500294901EB8000019011E0102CFF
:1031000004D1274800EB051001900AE0182C06D1E5
:1031100005EBC500234901EB8000019001E0BDE80B
:10312000FE8F002734E00198C05D02904FF0000A46
:1031300028E0029800F0800028B14A463146404617
:10314000FFF734FE0AE0B9F1000F01D1012000E0E1
:103150000020024631464046FFF728FE029840060E
:10316000000E0290701CC6B2A6EB0B00A04205D167
:103170005E4608F1010000F0FF0806E00AF10100D8
:1031800000F0FF0ABAF1080FD3DB00BF781CC7B20A
:1031900000988742C7DB00BFC1E700004236000845
:1031A000C23A0008C2400008F8B506460F46154668
:1031B0001C4621E004EBD4714910C1F18001B142F9
:1031C00002DA00263819C7B2C4F14000B84204DA66
:1031D000002007460646FFF7D1FD012000902A781F
:1031E000234639463046FFF753FF204604EBD071A3
:1031F00006EB6101CEB26D1C2878202802DB28780E
:103200007E28D7DDF8BD000070B504460E4600BF2D
:103210002EB1012208212348FEF77EFC04E00022A3
:1032200008212048FEF778FC00BF00BF00224021A3
:103230001C48FEF771FC00BF002522E000BF002201
:1032400001211948FEF768FC00BF04F0800030B18E
:1032500000BF012202211448FEF75EFC06E000BF19
:10326000002202211048FEF757FC00BF00BF0122D8
:1032700011460D48FEF750FC00BF6006040E681CA6
:10328000C5B2082DDADB00BF012208210548FEF790
:1032900043FC00BF00BF012240210248FEF73CFC76
:1032A00000BF70BD001401400010014030B58FB068
:1032B00005460124282105A8FDF7A3F81421684636
:1032C000FDF79FF80120059000040690002007906C
:1032D00002200C90C1030D910E9505A8FEF708FE83
:1032E00004460CB100BFFEE70F20009002200190C1
:1032F000002002904FF4806003900020049002218F
:103300006846FEF7BFFC04460CB100BFFEE70FB0F5
:1033100030BD000010B5044609480A490860084657
:10332000446000218160C160016181610C214161C3
:10333000FFF7D6F8012204490248FFF765F910BDEE
:1033400000380140E40000200E00002010B50029E4
:103350000AD00878002807D005487844FDF74EFCCD
:10336000002801D0002010BD0248784410BD0000A4
:103370009E1B0000961B00000808A0F500114FEAF4
:103380003101704743004FEAD30C4FEA3C0C4340F5
:103390001FBF40070CF1605113F0FE4F70471CF047
:1033A000006F03D100200CF0004170470CF0004387
:1033B00043EA507010B540EACC0000F0E9F800BFD5
:1033C000000000924FEA0001FFF7D6BF4FF0004126
:1033D0004FF00000A1F50021704700004FF47F0C72
:1033E0001CEAD0121EBF1CEAD11392EA0C0F93EA1A
:1033F0000C0F00F0858090EA010F48BF42F4807204
:1034000040F4000C41F400002CF07F4120F07F409C
:1034100000B58142A2EB03020FF2081CACEB504E48
:10342000C0F100009EF800E04FEA4E0E00FB0EFCDB
:1034300038BF49004FEA2C1C02F5FA020CFB0EF3D0
:103440004FEACE1E4FEA112C4FEAC1210EEB635E0C
:1034500042EB22420EFB0CFC4FEA1C5300FB031113
:103460004FEA112C4FEA01310EFB0CFC4FEADC4C09
:1034700000FB0C11C14228BF09184CEB03335DF867
:1034800004EB10EB410143EBC250B2F57C0F38BFA7
:10349000704729D512F0F00F1CBF00F1C04000F0BA
:1034A00000407047008182838485868788898B8C61
:1034B0008D8E8F919293959697999A9C9D9FA0A29D
:1034C000A3A5A7A8AAACAEB0B2B3B5B7B9BCBEC0ED
:1034D000C2C5C7C9CCCED1D4D7D9DCDFE2E6E9EC8E
:1034E000F0F3F7FAFE0000004FEA400C0CF1807C8C
:1034F000BCF17E4F28BF7047B0F1C04000F08EB8DD
:1035000090EA010F0CEAD11348BF42F48072624581
:1035100038BF634507D213F47F0F16D080EA01004D
:1035200000F00040704710B500F032F8097EFC3E14
:1035300000F005B880EA010000F00040704780EA22
:10354000010000F0004000F069B812F47F0F04BFE2
:103550000248704780EA010000F060B80000C07FB8
:1035600010F0004148BF4042B0FA80F310FA03F275
:10357000C3F19D030BD051EAC35101EB1220530656
:1035800038BF704700F1010008BF20F0010070470C
:103590000EF1020E2EF0030E5EF8044B244204D40A
:1035A0004FEA4102B2F17F4F11D84FEA4003B3F125
:1035B0007F4F0CD80ED14FEAD07CB2F17F4F0CEB8D
:1035C0004C0C0CF1020C08BF4CEBD17C04E04FF02A
:1035D000080C01E04FEAD17C0CEB4C0324FA03F415
:1035E00004F00704B4F1040C06D20EEB840CBDE821
:1035F00010404CF0010C6047DFE80CF007080202B5
:103600004FF00040A0F5800010BD0846420018BFF2
:10361000D2F1807288BF00F0004010BDFF2141EA66
:10362000D050C0057047FDF749B800000000000009
:10363000000001020304060708090000000001025F
:103640000304000000000000000000000000000073
:1036500000003F400000000000000000300040007B
:1036600030004000000009000BC03D000BC03D00D1
:10367000090018C024407FE022403180000018007B
:1036800024C01B000D803240018003801C40274075
:103690001C80074000401000600000000000000097
:1036A00000000000000000001F80204040200000BB
:1036B000402020401F8000000000090006001F80FD
:1036C000060009000000040004003F80040004001C
:1036D0000000001000600000000000000000040076
:1036E000040004000400040000000000004000008A
:1036F000000000000000002001C00600380040006B
:1037000000001F802040204020401F80000000005B
:1037100010403FC000400000000018C0214022407F
:1037200024401840000010802040244024401B808A
:10373000000002000D0011003FC0014000003C806D
:10374000244024402440238000001F802440244043
:103750003440038000003000200027C038002000E3
:1037600000001B802440244024401B8000001C00DB
:1037700022C0224022401F800000000000000840BC
:1037800000000000000000000000046000000000D5
:103790000000000004000A001100208040400900E1
:1037A00009000900090009000000000040402080D5
:1037B00011000A0004001800200023402400180013
:1037C00000001F802040274029401F40000000408B
:1037D00007C039000F0001C0004020403FC0244016
:1037E00024401B8000001F8020402040204030806B
:1037F000000020403FC0204020401F8000002040AB
:103800003FC024402E4030C0000020403FC0244034
:103810002E00300000000F00108020402240338036
:10382000020020403FC0040004003FC02040204070
:1038300020403FC020402040000000602020202089
:103840003FC02000200020403FC024400B0030C07B
:10385000204020403FC020400040004000C03FC00A
:103860003C0003C03C003FC0000020403FC00C4073
:1038700023003FC020001F802040204020401F80A8
:10388000000020403FC024402400180000001F809A
:103890002140214020E01FA0000020403FC02440E4
:1038A000260019C0004018C0244024402240318026
:1038B0000000300020403FC02040300000002000C9
:1038C0003F80004000403F80200020003E0001C0BB
:1038D000070038002000380007C03C0007C038004F
:1038E0000000204039C0060039C020400000200000
:1038F000384007C0384020000000304021C026403A
:10390000384020C00000000000007FE04020402040
:103910000000000070000C00038000400000000068
:10392000402040207FE00000000000002000400018
:103930002000000000000010001000100010001017
:103940000010000000004000000000000000000027
:1039500002800540054003C0004020003FC00440F5
:10396000044003800000000003800440044006403F
:10397000000000000380044024403FC000400000DD
:1039800003800540054003400000000004401FC0C4
:10399000244024402000000002E00550055006505D
:1039A000042020403FC00440040003C00040000049
:1039B000044027C000400000000000100010041068
:1039C00027E00000000020403FC00140070004C085
:1039D0000440204020403FC000400040000007C09D
:1039E000040007C0040003C00000044007C00440F6
:1039F000040003C000400000038004400440038032
:103A00000000041007F00450044003800000000090
:103A100003800440045007F00010044007C0024037
:103A2000040004000000000006400540054004C0FA
:103A30000000000004001F8004400040000004005B
:103A400007800040044007C000400400070004C095
:103A5000018006000400060001C0070001C0060046
:103A60000000044006C0010006C00440000004102D
:103A7000071004E00180060004000000044005C0B7
:103A80000640044000000000000004007BE04020ED
:103A90000000000000000000FFF000000000000037
:103AA00040207BE004000000000040008000400057
:103AB0002000200040000000000000000000000086
:103AC00000000000000000000000000000000000F6
:103AD00000000000000000001FCC000C00000000EF
:103AE00000000000080030006000080030006000A6
:103AF0000000022003FC1E20022003FC1E200220E6
:103B0000000000000E1811043FFF10840C78000024
:103B100000000F0010840F3800C007781884007868
:103B2000000000780F8410C411240E9800E4008473
:103B3000000808006800700000000000000000009D
:103B4000000000000000000007E0181820044002F8
:103B50000000000040022004181807E000000000E8
:103B600000000240024001800FF00180024002404C
:103B700000000080008000800FF80080008000803E
:103B800000000001000D000E000000000000000019
:103B90000000000000800080008000800080008025
:103BA00000800000000C000C00000000000000007D
:103BB00000000000000600180060018006001800E8
:103BC0002000000007F0080810041004080807F09F
:103BD00000000000080408041FFC000400040000AA
:103BE000000000000E0C10141024104411840E0C60
:103BF000000000000C1810041104110412880C704D
:103C00000000000000E00320042408241FFC00241E
:103C1000000000001F981084110411041088107017
:103C20000000000007F008881104110418880070D3
:103C3000000000001C00100010FC13001C0010000D
:103C4000000000000E3811441084108411440E3816
:103C5000000000000700088C10441044088807F09A
:103C60000000000000000000030C030C0000000036
:103C7000000000000000000101060000000000003C
:103C80000000000000800140022004100808100419
:103C90000000022002200220022002200220022036
:103CA00000000000100408080410022001400080F9
:103CB000000000000E001200100C106C10800F00AD
:103CC000000003E00C1813E4142417C4082807D0DC
:103CD00000000004003C03C41C40074000E4001C3A
:103CE000000410041FFC1104110411040E8800705C
:103CF000000003E00C1810041004100410081C103D
:103D0000000010041FFC100410041004080807F041
:103D1000000010041FFC1104110417C4100408183B
:103D2000000010041FFC1104110017C0100008004F
:103D3000000003E00C181004100410441C7800402C
:103D4000000010041FFC10840080008010841FFC01
:103D500010040000100410041FFC100410040000E4
:103D6000000000030001100110011FFE10001000F0
:103D7000000010041FFC110403801464181C1004BC
:103D8000000010041FFC1004000400040004000CD8
:103D9000000010041FFC1F0000FC1F001FFC10048B
:103DA000000010041FFC0C04030000E010181FFCAE
:103DB000100007F00808100410041004080807F0A9
:103DC000000010041FFC10841080108010800F0071
:103DD000000007F0081810241024101C080A07F22D
:103DE000000010041FFC1104110011C011300E0C52
:103DF000000400000E1C11041084108410441C38B0
:103E000000001800100010041FFC1004100018001F
:103E1000000010001FF810040004000410041FF834
:103E2000100010001E0011E0001C007013801C0028
:103E300010001FC0103C00E01F0000E0103C1FC03D
:103E400000001004180C163401C001C01634180C00
:103E5000100410001C00130400FC13041C001000CC
:103E600000000804101C1064108413041C041018B3
:103E700000000000000000007FFE400240024002FF
:103E80000000000030000C0003800060001C0003F4
:103E9000000000004002400240027FFE00000000DF
:103EA0000000000000002000400040004000200012
:103EB00000000001000100010001000100010001FB
:103EC0000001000040004000200000000000000051
:103ED000000000000098012401440144014400FC5A
:103EE000000410001FFC0088010401040088007019
:103EF0000000000000700088010401040104008833
:103F000000000000007000880104010411081FFC7B
:103F10000004000000F8014401440144014400C8C9
:103F200000000000010401040FFC11041104110041
:103F30001800000000D601290129012901C9010644
:103F4000000010041FFC008401000100010400FCBB
:103F5000000400000104190419FC0004000400001E
:103F600000000000000300010101190119FE00001A
:103F7000000010041FFC0024004001B4010C0104E7
:103F800000000000100410041FFC000400040000E6
:103F90000000010401FC0104010001FC0104010016
:103FA00000FC010401FC008401000100010400FC8C
:103FB0000004000000F8010401040104010400F8F9
:103FC0000000010101FF0085010401040088007068
:103FD000000000000070008801040104010501FFD9
:103FE00000010104010401FC0084010401000180BE
:103FF0000000000000CC01240124012401240198C8
:10400000000000000100010007F8010401040000A5
:104010000000010001F8000400040004010801FC94
:104020000004010001800170000C0010016001809B
:10403000010001F0010C003001C00030010C01F062
:10404000010000000104018C00740170018C010466
:104050000000010101810171000E00180160018062
:10406000010000000184010C013401440184010CB1
:104070000000000000000000000001003EFC4002C3
:1040800040020000000000000000FFFF00000000F0
:1040900000000000400240023EFC01000000000061
:1040A0000000000060008000800040004000200010
:1040B00020000000000000000000000000000000E0
:1040C00000000000000000000000000000000000F0
:1040D00000000000000000000000000000000000E0
:1040E00000000000000000000000000000000000D0
:1040F00000000000000F80380FFE380F80380000ED
:1041000000000000000000000000000000000000AF
:104110000100000600000C0000380000310000061D
:1041200000000C000038000030000000000000001B
:10413000000061800067F807F980006180006180FD
:104140000061800061800067F807F98000618000ED
:10415000000000000000000001C0E003E0F00630B5
:10416000080418081FFFFE040E080787F00381E00B
:1041700000000000000001F000060C000404080626
:104180000C7001F9C0000E00003BE000EC180708BD
:1041900008040C180003E00000000001E00007F034
:1041A00003F818041C0804170807E1D003C0E00056
:1041B00023B0003C080020080000100000000000B0
:1041C000000100003100003200001C00000000006F
:1041D00000000000000000000000000000000000DF
:1041E00000000000000000000000000000000000CF
:1041F00000007F0001FFC00780F00C0018100004D1
:104200002000020000000000002000021000040C4A
:1042100000180780F001FFC0007F000000000000D0
:10422000000000000000000000000000000042004C
:10423000006600006600003C0000180003FFC0009C
:104240001800003C0000660000660000420000000C
:104250000000080000080000080000080000080036
:1042600001FFC0000800000800000800000800006E
:1042700008000000000000010000310000320000D2
:104280001C00000000000000000000000000000012
:10429000000000000000000000000800000800000E
:1042A00008000008000008000008000008000008DE
:1042B00000000800000800000000000000000000EE
:1042C0000000380000380000380000000000000046
:1042D00000000000000000000000000000000000DE
:1042E0000000000600001C000070000180000E00AD
:1042F00000380000C0000700001C00003000000073
:104300000000000000007F8001FFE00380700600D5
:104310001804000804000806001803807001FFE07C
:10432000007F800000000000000000000100080184
:10433000000801000803FFF807FFF800000800006C
:104340000800000800000000000000000001C03864
:1043500002C0580400980401180402180404180646
:104360001C1803F81801E0F800000000000000002D
:104370000001C0E003C0F0040008040808040808B5
:1043800006180803F41801E7F00001E0000000003F
:104390000000000000000300000D0000110000619B
:1043A0000000810803010807FFF80FFFF80001086B
:1043B0000001080000000000000000E007FCD0063B
:1043C0000808061008061008061008061838060F18
:1043D000F00607C0000000000000000000003F8061
:1043E00001FFE003843002081804100804100804D8
:1043F0001008071810030FF00007C00000000000AD
:104400000000000003C0000700000600000600F8DE
:104410000607F806180006E0000700000600000086
:10442000000000000001E1E003F7F006341004187A
:1044300008041808040C08040C0806161803F3F006
:1044400001C1E000000000000000F80003FC3003A0
:1044500006380402080402080402080404100308D1
:10446000F001FFC0007F000000000000000000001D
:1044700000000000000000000000703800703800EC
:104480007038000000000000000000000000000084
:104490000000000000000000000000000000301AD2
:1044A00000301C00000000000000000000000000C0
:1044B00000000000000000000008000014000022BE
:1044C0000000410000808001004002002004001034
:1044D000080008000000000000002100002100008A
:1044E0002100002100002100002100002100002106
:1044F000000021000021000000000000000000007A
:104500000800080400100200200100400080800024
:10451000410000220000140000080000000000001C
:104520000003C00004C000040000080038080F3871
:104530000808380810000C300007E00003C0000035
:104540000000000000003F8000FFE0038070020FC9
:104550001006708804C088048308047F8802C09015
:1045600003012000FE400000080000180001F800D0
:104570003E0801C20007020007E20000FE00001F23
:10458000C80001F800003800000804000807FFF820
:1045900007FFF804080804080804080804080806C7
:1045A000180803F41801E7F00001E0000000000023
:1045B00000003F8001FFE003807002001804000843
:1045C0000400080400080400100600200780C00052
:1045D000000004000807FFF807FFF80400080400C3
:1045E0000804000804001802001003807001FFE0B6
:1045F000007F8000000004000807FFF807FFF804B0
:104600000808040808040808040808043E08040010
:104610000806001801006000000004000807FFF809
:1046200007FFF80408080408000408000408000450
:104630003E000600000600000180000000000000AF
:1046400000003F8001FFE0038070060018040008AE
:104650000402080402080203F00783F000020000CD
:10466000020004000807FFF807FFF8040808000824
:104670000000080000080000080004080807FFF810
:1046800007FFF80400080000000000000400080410
:10469000000804000807FFF807FFF80400080400FA
:1046A00008040008000000000000000000000006F0
:1046B00000000700000104000104000104000307DA
:1046C000FFFE07FFFC0400000400000400000400DB
:1046D0000807FFF807FFF8040C08001800003E0068
:1046E00004C7800503C80600F80400380400180059
:1046F000000804000807FFF807FFF804000800009E
:104700000800000800000800000800000800001869
:1047100000006000000004000807FFF80780080799
:10472000FC00007FC00003F80007C000780007808D
:104730000807FFF807FFF804000804000807FFF85F
:1047400007000803C00000E000003800001E000061
:1047500007000001C00400F007FFF804000000009B
:1047600000007F8001FFE00380700600180400084D
:1047700004000806001803003001FFE0007F8000FD
:10478000000004000807FFF807FFF8040408040409
:1047900000040400040400040400060C0003F800F4
:1047A00001F000000000000000007F8001FFE00336
:1047B00080700600880400880400C806003C0300DE
:1047C0003E01FFE6007F8400000004000807FFF8B8
:1047D00007FFF8040808040800040C00040F000494
:1047E0000BC00610F003F03801E0080000080000DC
:1047F0000001E0F803F0300630100418080418082F
:10480000040C08040C080206180207F00781E000F7
:104810000000018000060000040000040000040005
:104820000807FFF807FFF804000804000004000070
:1048300006000001800004000007FFE007FFF0040D
:104840000018000008000008000008000008000030
:104850000804001007FFE004000004000006000048
:1048600007E00007FE00041FE00001F80000380028
:1048700001E0043E0007C000060000040000040040
:104880000007E00007FFC0041FF80007C007F8009A
:1048900007FF80043FF80007C004F8000700000489
:1048A000000000000004000806001807C07805F1A9
:1048B000C8003E00001F800463E80780F806001867
:1048C0000400080000000400000600000780000744
:1048D000E008047C08001FF80007F800180804E04E
:1048E00008070000060000040000000000010008A6
:1048F0000600380400F80403E8040F08047C0805E7
:10490000F00807C00807001804006000000000005D
:10491000000000000000000000000000003FFFFE5B
:1049200020000220000220000220000220000200DD
:10493000000000000000000008000007000000C0A8
:10494000000038000006000001C000003000000E2A
:104950000000010000000000000000002000022014
:1049600000022000022000022000023FFFFE0000A3
:104970000000000000000000000000000000000037
:10498000000000080000100000300000200000308F
:1049900000001000000800000000000000000000FF
:1049A0000100000100000100000100000100000101
:1049B00000000100000100000100000100000100F2
:1049C00000010000000000000000002000002000A6
:1049D00000100000100000000000000000000000B7
:1049E0000000000000000000000000F00019F800C6
:1049F0001B18002208002608002408002410003F8D
:104A0000F8001FF800000800001800000004000073
:104A100007FFF80FFFF0001818001008002008002A
:104A20002008003018001FF0000FC0000000000038
:104A3000000007C0001FF000183000200800200808
:104A4000002008003C08001C10000060000000006E
:104A500000000000000007C0001FF0003818002010
:104A60000800200800200804101007FFF80FFFF0CE
:104A70000000100000000000000000000007C0005F
:104A80001FF0001230002218002208002208003215
:104A900008001E10000E2000000000000000200092
:104AA00000200800200801FFF803FFF80620080492
:104AB0002008042008072000030000000000000078
:104AC0000000000E000E6E001FF30031B10020B197
:104AD0000020B1003191001F13002E1E00200E0097
:104AE000300000000004000807FFF80FFFF8001076
:104AF00008002000002000002008003FF8001FF8F8
:104B00000000080000000000000000000020080075
:104B10002008002008063FF8063FF80000080000C3
:104B20000800000800000000000000000000000075
:104B30000000030000030020010020010020030604
:104B40003FFE063FFC0000000000000000000000E7
:104B50000004000807FFF80FFFF8000188000300B9
:104B6000002FC00038F8002038002008000008009E
:104B70000000000000000000040008040008040019
:104B80000807FFF80FFFF800000800000800000801
:104B9000000000000000002008003FF8003FF8007F
:104BA0001008002000003FF8003FF8001008002027
:104BB00000003FF8003FF800000800000000200857
:104BC000003FF8003FF8001008001000002000002F
:104BD0002008003FF8001FF8000008000000000057
:104BE000000007C0000FF000183000300800200857
:104BF000002008003008001830000FF00007C00047
:104C00000000000000002001003FFF003FFF0010F7
:104C100011002009002008002008003038001FF093
:104C2000000FC00000000000000007C0001FF000DF
:104C30003818002008002008002009001011001F6B
:104C4000FF003FFF000001000000002008002008D6
:104C5000002008003FF8003FF80008080010080096
:104C6000200800200000300000300000000000009C
:104C700000000000000C78001E1800330800230814
:104C80000021080021880021980030F000386000E1
:104C9000000000000000200000200000200000FFB5
:104CA000F003FFF800200800200800200800003072
:104CB000000000000000000000002000003FF000A5
:104CC0007FF8000018000008000008002010003FD6
:104CD000F8007FF00000100000000000000020003D
:104CE000003000003C00003F800023F0000078000E
:104CF0000070002380003C000030000020000020F5
:104D000000003C00003FE00023F80000E000270026
:104D1000003E00003FE00021F80001E0003E0000FE
:104D20002000000000002008002008003838003E65
:104D3000680027800003C8002CF8003838002018CD
:104D400000200800000000000000200000300300E8
:104D50003C01003F830023EC000070002380003CF6
:104D60000000200000200000000000000000000003
:104D70000038080020380020F80023E8002F8800C1
:104D80003E080038080020180000700000000000F5
:104D9000000000000000000000000000000008000B
:104DA0000014001FF7FC3000062000020000000085
:104DB00000000000000000000000000000000000F3
:104DC00000000000FFFFFF000000000000000000E6
:104DD0000000000000000000000000002000023081
:104DE00000061FF7FC00140000080000000000008F
:104DF000000000000000000000000000001800009B
:104E0000600000400000400000200000100000088A
:104E100000000400000400000C000010000000006E
:104E20000000000000000000000000000000000082
:104E30000000000000000000000000000000000072
:104E40000000000002400000000000A00000000080
:104E500005400000000000C8000000000C400000F9
:104E60000000409C00000000194000000020BCBE73
:104E70000000000034400000BFC91B8E0000000489
:104E8000B5400000504BCFD06607E2CF01000000D4
:104E90006C4100003E8251AADFEEA7340100000001
:104EA000D9420000DCB5A0E23A301F97FFFFFFFFB8
:104EB000B4450000FD25A0C8E9A3C14FFFFFFFFFD7
:104EC000FF3F00000000008000000000FF3F0000E6
:104ED0000000008000000000144F000800000020C7
:104EE0001C0000006C010008304F00081C0000206E
:104EF0006C0B0000880100081C000000430000004B
:104F0000F8FFFFFF0C0000000E0000000F00000083
:104F10002E0000000024F40000000000000000004B
:104F20000000000000000000100000000100000070
:0400000508000131BD
:00000001FF
